:100000000C94B0010C9402020C9402020C940202B3
:100010000C9402020C9402020C9402020C94020250
:100020000C9402020C9402020C942D1C0C94FC1CE7
:100030000C94732A0C9402020C9402020C94020297
:100040000C9402020C9402020C9402020C94020220
:100050000C9402020C943E090C9402020C940202CD
:100060000C9402020C9402020C9402020C94020200
:100070000C9402020C9402020C9402020C940202F0
:100080000C9402020C9402020C9402020C940202E0
:100090000C9402020C9402020C9402020C940202D0
:1000A0000C9402020C9402020C940202691D8B1D36
:1000B0007E1E8B1D7E1ED01DF31D7E1E481E5B1EE8
:1000C000C320C320ED20ED2048217C216C236C232C
:1000D00093216C237E227E2244236C236C2359239C
:1000E000808080800405060708090A0B0C0D0E0F9E
:1000F000101112131415161718191A1B1C1D1E1F88
:10010000202122232425262728292A2B2C2D2E2F77
:10011000303132333435363738393A3B3C3D3E3F67
:10012000404142434445464748494A4B4C4D4E4F57
:10013000505152535455565758595A5B5C5D5E5F47
:10014000606162636465666768696A6B6C6D6E6F37
:100150007071727380808080808080808080800356
:100160000201808080668075007476778080808050
:100170007677808080808080808080808080808092
:10018000808080808080808080808080808080806F
:10019000808080808080808080808080808080805F
:1001A000808080808080808080808080808080804F
:1001B000808080808080808080808080808080803F
:1001C00078797A7B7C7D7E7F808080808080808053
:1001D000808080808080808080808080808080801F
:1001E0003C03550053004200200074006F002000C3
:1001F00055005300420020006B006500790062004A
:100200006F00610072006400200063006F006E00E8
:1002100076006500720074006500720000000E0335
:1002200074002E006D002E006B002E0000000403F1
:10023000090409025400030100A03209040000016E
:10024000030101000921110100012240000705817D
:100250000308000A09040100010301020009211139
:10026000010001224D000705820308000A0904026B
:1002700000010300000009211101000122360007DE
:1002800005830308000A1201100100000008EDFEBA
:100290005B0014080102000105010980A10185022B
:1002A0001601002637001A81002AB7007510950143
:1002B0008100C0050C0901A1018503160100269CDF
:1002C000021A01002A9C02751095018100C00501E7
:1002D0000902A1010901A10005091901290515005B
:1002E00025019505750181029501750381010501BF
:1002F000093009311581257F950275088106093875
:100300001581257F950175088106050C0A380215AF
:1003100081257F950175088106C0C005010906A1E8
:1003200001050719E029E7150025019508750181E8
:1003300002950175088101050819012905950575C2
:100340000191029501750391010507190029FF1517
:100350000026FF00950675088100C0002E0892084F
:1003600011241FBECFEFDAE0DEBFCDBF04B603FE1F
:1003700027C080917B0490917C04A0917D04B09172
:100380007E048730904BA740B04BD1F410927B0491
:1003900010927C0410927D0410927E0414BE84B7E7
:1003A000877F84BF0FB6F894A8958091600088611C
:1003B00080936000109260000FBEE0E0F8E30995C2
:1003C00011E0A0E0B1E0E4E2FDE502C005900D928D
:1003D000AA38B107D9F724E0AAE8B1E001C01D921C
:1003E000AB37B207E1F711E0C0EBD1E004C02197D1
:1003F000FE010E94762ECE3AD107C9F70E947819E5
:100400000C94902E0C94000080E00895089580E0F4
:10041000089581E00895CF93DF93CDB7DEB7289795
:100420000FB6F894DEBF0FBECDBFE22F29833A830B
:100430004B835C836D837E838F8398878091C60214
:10044000E82BE093C602FE013396AE01475F5F4F93
:100450002191243088F0A8ECB2E080E090E03D915A
:10046000311106C0DC01AA53BD4F12962C9304C073
:1004700001968630910599F7E417F50749F7289614
:100480000FB6F894DEBF0FBECDBFDF91CF910895B8
:10049000860F911D860F911DFC015687458781E0CF
:1004A0000895FC0187890895CF93DF93EC018C8137
:1004B0009D81DC01ED91FC910480F581E02D6E8140
:1004C00009951F86188A81E08A8B1E821B8A1C8AE6
:1004D0001D8A1E8A1F8A80E0DF91CF910895FC015A
:1004E0008681089581E0633009F080E0089581E01D
:1004F000613009F080E00895860F911D860F911DEF
:10050000FC01858596850895EF92FF92CF93DF9346
:10051000DC01E70152968C915297823049F11F9687
:100520006C931F9750964C9350979B819370933088
:10053000F9F49A8197FF1CC09E8158962C91589788
:10054000291718F458969C935897E82FF0E09F01CC
:10055000220F331FE20FF31FEA0FFB1F9A819F70D8
:1005600097839C81908794E091878F5F52968C93BC
:10057000DF91CF91FF90EF900895EF92FF920F934C
:1005800002970E9484020F91FF90EF9008950895C2
:10059000CF92DF92EF92FF920F931F93CF93DF934F
:1005A000CDB7DEB762970FB6F894DEBF0FBECDBFF2
:1005B000DC0157962C91222381F06C010E94A30844
:1005C000F6010389148925893689DC01CB01801B5A
:1005D000910BA20BB30BB7FF02C0F12C3AC083857D
:1005E00090E09A8B898BE12C8E010F5F1F4F9E014B
:1005F0002F5E3F4F42856681848195810E949611CE
:10060000F82E811118C029893A892330310598F0D4
:10061000D6011D968D919C911E97009761F0DC018B
:10062000ED91FC910190F081E02D8E010F5F1F4F45
:1006300040E0B60109950E94A308F601208DDC0177
:10064000CB01820F911DA11DB11D838B948BA58BB6
:10065000B68B8F2D62960FB6F894DEBF0FBECDBF5E
:10066000DF91CF911F910F91FF90EF90DF90CF908E
:1006700008952F923F924F925F926F927F928F9246
:100680009F92AF92BF92CF92DF92EF92FF920F9321
:100690001F93CF93DF93CDB7DEB7EB970FB6F894E8
:1006A000DEBF0FBECDBFDC0116965C90511019C1A4
:1006B000422E242E362E7C01FC01A480B580108EA3
:1006C000D501ED91FC910190F081E02D60E0C50134
:1006D00009956C01009719F446ED542E0FC1FC01E9
:1006E000808091808114910409F4FEC03701F7E005
:1006F0006F0E711CDC0111967C926E9214964C92D6
:100700008E01065D1F4F28E030E040E060E0F70119
:10071000848195810E94580F182F8111EBC01AA572
:10072000D6018D929C92D501ED91FC910280F381CE
:10073000E02D222D40E0632DC5010995F701868348
:10074000882309F4D4C099A99087282F40E060E05D
:10075000848195810E940310982ED501ED91FC9122
:10076000D60114961C92882361F00480F581E02D57
:10077000D70116966C91C5010995F7011682592C7F
:10078000BDC00190F081E02DD70116966C91C50196
:100790000995009709F4A0CF212F133108F022E129
:1007A000FC01448221110FC03BAC412C37E1832E68
:1007B00031E0932E5701F2E0AF0EB11C6E0181E1E2
:1007C000C80ED11C38C030E08E01065D1F4F40E0DE
:1007D000D70116966C91169714968D919C9115974A
:1007E0000E94580F182F811172C0DECF9A82898221
:1007F000BC82AB821E86188A1F8619A21AA21BA26F
:1008000019A6DF82CE82D986C8868D818B878A879A
:10081000DD86CC868E010F5F1F4F242D40E0F7014F
:100820006681848195810E94A60FD70152968C9192
:10083000823019F043944310D9CFF7018289823076
:1008400009F044C0930142E06681848195810E9451
:100850008E0A68EE73E080E090E00E94A508D70160
:100860001F962C911F9740E016966C911697149640
:100870008D919C9115970E947111182F811127C09D
:1008800068EE73E080E090E00E94A508F701418DDA
:1008900060E0C7010E947A13182F811118C020E070
:1008A00040E060E0C7010E9450138DE191E09A831F
:1008B0008983AE014F5F5F4F60E070E0C7010E9427
:1008C000E01281E0D70157968C9318C011EDD70143
:1008D000ED91FC910480F581E02DC7010995512E21
:1008E0000DC029ED522E0AC097ED592E07C084ED98
:1008F000582E04C0F60191828082E9CF852DEB96B7
:100900000FB6F894DEBF0FBECDBFDF91CF911F9120
:100910000F91FF90EF90DF90CF90BF90AF909F909E
:100920008F907F906F905F904F903F902F900895A1
:100930003F924F925F926F927F928F929F92AF926F
:10094000BF92CF92DF92EF92FF920F931F93CF93BC
:10095000DF9300D000D0CDB7DEB76C017C836B8312
:100960005A8349834C0180E1880E911C5601A7E00F
:10097000AA0EB11C11E084E0482E3601B2E16B0EE4
:10098000711C93E0392E22E0522E8B819C81892BA1
:1009900009F4FBC0F60180A1823059F128F48823C4
:1009A00041F0813071F0F1CF833039F18430C1F101
:1009B000ECCF5482858196819087878352865186B9
:1009C00010A3AE014D5F5F4FBE016F5F7F4FC5014A
:1009D0000E946E17882309F4D8C0D6011596ED91B0
:1009E000FC911697808191968C9391978181929634
:1009F0008C93F6017682658230A2D60192968C9114
:100A00009297843011F493961C92F60181A1825042
:100A1000848325813681308727838287818740A21E
:100A2000D60192968C918430B1F0853009F442C0A1
:100A3000823009F06EC0AE014D5F5F4FBE016F5F47
:100A40007F4FC5010E946E17882309F49EC0F601EE
:100A5000858984A392C0AE014D5F5F4FBE016F5F79
:100A60007F4FC5010E946E17882309F48EC0D601FE
:100A700055968C915597833009F07FC056968C918E
:100A80005697813009F079C098969C91989757961F
:100A90008C91992321F0882309F46FC003C0813021
:100AA00009F06BC0F60113A3928996A3938997A3CB
:100AB00085A363C0AE014D5F5F4FBE016F5F7F4F87
:100AC000C5010E946E17882309F45FC0D601939672
:100AD0008C919397882309F450C012968D919C9124
:100AE0001397009709F449C0DC01ED91FC91019046
:100AF000F081E02D7401D60195960C91959797960B
:100B00002C91979796964C91969794966C910995FF
:100B100034C0F6018585882319F0813039F028C06A
:100B200081A190E002979787868715872B813C816A
:100B300089819A81782F692FF6014685578541155D
:100B4000510581F001962115310529F41C821B8283
:100B500079836A830DC041505109578746872150D8
:100B60003109E8CF3C832B839A838983F60115866C
:100B7000F60186859785892B41F4D60116969C92BD
:100B80008E92159790961C9200CF0F900F900F9019
:100B90000F90DF91CF911F910F91FF90EF90DF9019
:100BA000CF90BF90AF909F908F907F906F905F900D
:100BB0004F903F900895CF93DF936091E40170913F
:100BC000E501E0919101F09192014091D80150919D
:100BD000D9012091CC013091CD018091C00190913B
:100BE000C1016E177F07B1F4E0918F01F091900180
:100BF0004E175F0779F4E0918D01F0918E012E1769
:100C00003F0741F4E0918B01F0918C018E179F0713
:100C100009F463C070939201609391015093900125
:100C200040938F0130938E0120938D0190938C011E
:100C300080938B01E6ECF2E088E0DF011D928A955B
:100C4000E9F72091DC013091DD014091DE01509106
:100C5000DF016091E0017091E1018091E2019091EA
:100C6000E3010E940B022091D0013091D10140910B
:100C7000D2015091D3016091D4017091D50180913E
:100C8000D6019091D7010E940B022091C4013091AE
:100C9000C5014091C6015091C7016091C801709192
:100CA000C9018091CA019091CB010E940B02209151
:100CB000B8013091B9014091BA015091BB016091E6
:100CC000BC017091BD018091BE019091BF010E9455
:100CD0000B0281E08093C50202C01092C5020E94FF
:100CE000FC08EC018EE492E00E94CF11CE010E943C
:100CF00014098EE492E00E946E0A90918A0189178D
:100D000061F08EE492E00E946E0A80938A0180393D
:100D100021F40E949B1E0E94941F81E0DF91CF91DD
:100D20000895482F80E1489F90011124205E3109E9
:100D30002830310538F49091C602992319F0892F93
:100D400090E002C080E090E0E8ECF2E061E070E06A
:100D50002191243070F0322F32953F70431309C037
:100D60002F70DB0102C0AA0FBB1F2A95E2F78A2B66
:100D70009B2BB2E0EE3CFB0759F708950895CF9204
:100D8000DF92EF92FF920F93CF93DF931F92CDB735
:100D9000DEB7898380914B02882371F0CE010196E2
:100DA0006C01EE24E394F12C00E022E040E060E0EE
:100DB00084E392E00E94231380913102882371F032
:100DC000CE0101966C01EE24E394F12C00E022E0C8
:100DD00040E060E08AE192E00E94231380911702D4
:100DE000882371F0CE0101966C01EE24E394F12C7E
:100DF00000E022E040E060E080E092E00E94231307
:100E00008091FD01882371F0CE0101966C01EE24E2
:100E1000E394F12C00E022E040E060E086EE91E017
:100E20000E9423130F90DF91CF910F91FF90EF90CD
:100E3000DF90CF9008950C94DB050E94312A8091B9
:100E40007004882331F00E945A2A882321F00C94E0
:100E50000C1A0C94DB050895FC017583648383E20E
:100E600091E09183808381E491E093838283138A6C
:100E7000148A158A168A178A418F178288E080871C
:100E80008CE381871286138684E0848781E0828BDD
:100E9000118A17861686158661157105B1F0DB017A
:100EA000AA5ABF4F80E090E02D913D91232B49F449
:100EB0008B96880F991FDB01A80FB91FED93FC9348
:100EC000089501968031910579F708952E9A089535
:100ED0002E988EBD0DB407FEFDCF1EBC0DB407FECF
:100EE000FDCF0E9466078EB508952E9882608EBD54
:100EF0000DB407FEFDCF6EBD0DB407FEFDCF0C9403
:100F0000660788EF0E946807807C803411F118F42E
:100F1000882371F10895803819F0803C39F10895E3
:100F200088ED0E9468079091930181FD08C092307E
:100F300029F161EC88ED0E94750782E007C09330CB
:100F4000E9F063EC88ED0E94750783E080939301DC
:100F5000089588ED0E9468079091930181FD03C078
:100F6000933079F70895923021F7089581E0EECF1C
:100F700061ED88ED0E9475071092930108950F931B
:100F80001F93CF93DF938C01269A0E946607219AC4
:100F9000229A2398209A80E58CBD81E08DBD25980A
:100FA00068E188E80E94750760E288E70E9475079B
:100FB00060E088E70E947507C0E0D0E088E60E9404
:100FC0006807219680FD06C0CF3F8FEFD807B1F7A5
:100FD0008FEF1DC061EC88ED0E94750760E280ED27
:100FE0000E94750764E088EE0E94750788EE0E94F3
:100FF000680782FFFBCFC8010E94810760E288EC8E
:101000000E94750761E080E80E94750780E0DF912B
:10101000CF911F910F910895809163048160809317
:1010200063048EE492E00E94BF078AED91E0909302
:101030004202809341028EEC91E0909328028093CB
:10104000270282EC91E090930E0280930D0286EBD2
:1010500091E09093F4018093F30108958EE492E07F
:101060000E943E0A40E06EE472E084E392E00E9457
:101070002C0740E06EE472E08AE192E00E942C07C7
:1010800040E06EE472E080E092E00E942C0740E0D5
:101090006EE472E086EE91E00E942C0787E491E016
:1010A0009093DB018093DA019093CF018093CE017E
:1010B0009093C3018093C2019093B7018093B601CE
:1010C0006EE472E085EA91E00E94FE156EE472E043
:1010D00084E991E00C94FE150F931F93CF93DF9357
:1010E000F8012281213061F0EC01DC01129688E0E8
:1010F00001900D928A95E1F70E94A3087B876A8789
:10110000DF91CF911F910F91089580E090E00895B5
:101110008FEF9FEF08950895862F0E945C1981E05C
:1011200090E00895EEECF2E01382128288EE93E0F4
:10113000A0E0B0E084839583A683B7838DE491E03B
:101140009183808308950C9408098F929F92AF92A7
:10115000BF92CF92DF92EF92FF920E943E2D4B0101
:101160005C0120E030E04AEF54E40E94F52D6B0171
:101170007C0120E030E040E85FE30E94032D87FD22
:1011800024C020E03FEF4FE757E4C701B6010E94BB
:10119000F02D1816ACF420E030E040E251E4C50137
:1011A000B4010E94F52D0E940F2D28EC30E061154E
:1011B000710581F0C9010197F1F761507109F7CF0D
:1011C000C701B6010E940F2D02C061E070E0CB01A3
:1011D0000197F1F7FF90EF90DF90CF90BF90AF9025
:1011E0009F908F90089582E084BD93E095BD9DE728
:1011F00097BD80936E0008952FB7F8948091DC021C
:101200009091DD02A091DE02B091DF022FBF089520
:101210002FB7F8946091DC027091DD028091DE02BC
:101220009091DF022FBF0895CF92DF92EF92FF924D
:101230000F931F932FB7F8944091DC025091DD0279
:101240006091DE027091DF022FBF6A017B01EE2404
:10125000FF248C0120E030E0C016D106E206F30640
:1012600010F4415051099A01281B390BC9011F91F3
:101270000F91FF90EF90DF90CF9008951F920F9203
:101280000FB60F9211248F939F93AF93BF938091CA
:10129000DC029091DD02A091DE02B091DF020196A6
:1012A000A11DB11D8093DC029093DD02A093DE02AC
:1012B000B093DF02BF91AF919F918F910F900FBEBE
:1012C0000F901F901895CF93DF93FC01862F8078A5
:1012D000A9F4283008F04DC0442321F095819730BF
:1012E00009F447C0EF01A1E0B0E09D85992341F0EA
:1012F00011962596A031B105C1F73BC080E039C0F9
:1013000061111CC085E08A9FE0018B9FD00D1124E4
:10131000CE0FDF1F442331F081E4888785818F5F02
:10132000858302C081E0888725E02A9FC0012B9F2A
:10133000900D1124E80FF91F80851BC06770660FA0
:10134000660F660F442341F0606485818F5F85835B
:101350008770687F682B03C02770687B622B25E04D
:101360002A9FC0012B9F900D1124E80FF91F608761
:10137000862FDF91CF910895611102C006960895DE
:10138000FC0121E03585631739F02F5F3596203158
:10139000C9F780E090E00895069635E0239F800D20
:1013A000911D11240895DF92EF92FF920F931F93E6
:1013B000CF93DF93EC01E62EF12C85E0689FB0011E
:1013C0001124FE01E60FF71F8085182F177086FF86
:1013D00017C001E085E0D82EFE01D09EE00DF11D82
:1013E0001124808586958695869587701817F9F063
:1013F0000F5F003189F78D81811302C011501D8369
:1014000085E08E9DF0018F9DF00D1124EC0FFD1FE6
:10141000108681E0818712862296D783C683DF916A
:10142000CF911F910F91FF90EF90DF900895602F63
:10143000CE010E94D309D0CFFC01613499F49C0104
:10144000255B3F4F61E0AC014E5F5F4F15866687BD
:101450001786548743873596E217F307B9F7FC01DF
:101460001582089521E03585631729F02F5F3596A1
:101470002031C9F70895622F0C94D309FC018FE540
:1014800091E0918380831582108681E081871286A6
:10149000CF01029697838683128228E023832CE370
:1014A0002483DF019F01255B3F4F41E01D961C9285
:1014B0001D971E964C931E971F961C921F971C9665
:1014C0009C938E931B971596A217B30779F7EA584A
:1014D000FF4F108281E18093E40208958091E4023D
:1014E0000895CF93C42F0E94BC09009789F0DC01B6
:1014F000ED91FC911197309759F013969C9180E0F3
:10150000891731F020812C1731F033968F5FF8CF97
:1015100080E090E001C0CF01CF9108950F931F9319
:10152000CF93DF932115310571F0E901042F162FB8
:101530000E94BC09FC01892B41F01283D183C08336
:10154000038380E003C088ED01C086EDDF91CF9179
:101550001F910F910895CF92DF92FF920F931F93E7
:10156000CF93DF93662381F1F62E8C016C0186E523
:10157000C80ED11CC0E0D0E0D6018D919D916D01C7
:101580000097F1F0DC01ED91FC910084F185E02DF4
:101590000995F81215C0AB96CC0FDD1FC00FD11FF7
:1015A00088819981DC01ED91FC910480F581E02D29
:1015B000DF91CF911F910F91FF90DF90CF90099411
:1015C0002196C031D105C1F680E0DF91CF911F9106
:1015D0000F91FF90DF90CF9008952E980895CF93AC
:1015E000C82F0E94ED0ACEBD0DB407FEFDCF1EBC74
:1015F0000DB407FEFDCF0E9466078EB5CF9108950A
:10160000CF93DF93C82FD62F0E94ED0AC260CEBDC4
:101610000DB407FEFDCFDEBD0DB407FEFDCFDF919B
:10162000CF910C9466078F929F92AF92BF92CF9208
:10163000DF92EF92FF920F931F93CF93DF93EC0112
:10164000D62EC42E59010E94BC097C01009709F4D2
:1016500045C0FC0180819181892B09F441C04C2D4A
:101660006D2DCE010E94710AF50191838083009750
:10167000C9F1FC0182818695869590E080319105C3
:1016800014F08FE090E041E050E060E070E04A014B
:101690005B0104C0880C991CAA1CBB1C8A95D2F75C
:1016A000D501C4010197F801918380836D2D80EEEF
:1016B0000E94000B88ED0E94EF0AF70194819923A4
:1016C00031F0CA58DF4F68816260682B02C0682F12
:1016D000697F88ED0E94000B80E005C086ED03C0A5
:1016E00087ED01C08BEDDF91CF911F910F91FF909E
:1016F000EF90DF90CF90BF90AF909F908F90089524
:101700008F929F92AF92BF92CF92DF92EF92FF9211
:101710000F931F93CF93DF93862E942E59010E942F
:10172000A3086B017C0128E8C20E23E1D21EE11C54
:10173000F11C00E010E0D0E0C0E098280E94A3086F
:10174000DC01CB018C199D09AE09BF09B7FF2DC083
:10175000692D80EF0E94000B0E94A308DC01CB01E1
:101760008C199D09AE09BF09B7FF09C088EC0E941A
:10177000EF0A87FFF1CF60E888EC0E94000B88EF4A
:101780000E94EF0AC82FCF70C43019F0CE3051F04C
:101790000CC00F5F1F4FA114B10481F20A151B0585
:1017A00069F603C0DF5FD33049F68C2FDF91CF910C
:1017B0001F910F91FF90EF90DF90CF90BF90AF906F
:1017C0009F908F9008959F92AF92BF92CF92DF9299
:1017D000EF92FF920F931F93CF93DF937C01D42F4F
:1017E000122F902E00E06C01C60ED11CC60ED11C2B
:1017F00086E5C80ED11CA42EB12CABE2AA0EB11CFA
:10180000AA0CBB1CAE0CBF1CF60180819181DC01CF
:10181000ED91FC910280F381E02D292D412F6D2F58
:101820000995803EC9F4D1110BC061E088EE0E9499
:10183000000B66E670E080E090E00E94A50814C00E
:10184000F50180819181DC01ED91FC910284F385A9
:10185000E02D612F099508C08D3021F4033008F088
:101860003FC014C081113FC0F60180819181DC012D
:10187000ED91FC910190F081E02D292D412F6D2FEC
:101880000995C82F8D3051F4033050F464E670E0B0
:1018900080E090E00E94A5080F5FB6CF882311F189
:1018A000D1110BC061E088EE0E94000B66E670E08B
:1018B00080E090E00E94A50811C0ED2FF0E0BB96FB
:1018C000EE0FFF1FEE0DFF1D80819181DC01ED9178
:1018D000FC910284F385E02D612F09958C2F03C0C4
:1018E0008DE001C080E0DF91CF911F910F91FF90BB
:1018F000EF90DF90CF90BF90AF909F9008950F939F
:101900001F93CF93DF93182F062FEA010E94ED0A51
:1019100012601EBDFE01802F882339F00DB407FE32
:10192000FDCF91919EBD8150F7CFC00FD11D0DB459
:1019300007FEFDCF0E946607CE01DF91CF911F9178
:101940000F9108952F923F924F925F926F927F92E4
:101950008F929F92AF92BF92CF92DF92EF92FF92BF
:101960000F931F93CF93DF9300D000D01F92CDB77A
:10197000DEB77D836C834A016901FB01F1808FEF43
:101980008F0D803408F074C00E94A3082B013C0125
:10199000F8E84F0EF3E15F1E611C711CEC81FD81C4
:1019A000828180FD02C060E401C060E888EE0E9490
:1019B000000B312C8F2D90E09A838983C114D104C0
:1019C00009F448C0E980FA80CE14DF0408F47601F7
:1019D000EB82A8016E2D80E10E947F0C6E2D88E3C2
:1019E0000E94000BEC81FD816081606280EF0E94AB
:1019F000000B88EC0E94EF0A87FFFBCF60E888ECC1
:101A00000E94000B88EF0E94EF0A8F70382EA12CE5
:101A1000B12C212C332009F46BC00E94A308DC01F7
:101A2000CB0184199509A609B709B7FF61C0F6E093
:101A30003F1601F12EE0321609F455C084E0381249
:101A400009C0FFEFAF1ABF0A8114910449F1A8142D
:101A5000B90431F588EF0E94EF0A85FB882780F9E9
:101A6000EC81FD81928180FB90F99283832D45C0AA
:101A70008AED43C088EF0E94EF0A85FB882780F932
:101A800091E08927EC81FD81928180FB90F992831E
:101A900090FD02C060E401C060E888EE0E94000B87
:101AA00060E088E30E94000BF801608180E10E9401
:101AB000000B6B8188E30E94000BEC81FD8160814B
:101AC000606280EF0E94000B88EC0E94EF0A87FFA3
:101AD000FBCF60E888EC0E94000B88EF0E94EF0AC1
:101AE0008F70382E97CF239423E02212D9CFB2CF14
:101AF000CE18DF080E0D1F1D61CF0F900F900F90B5
:101B00000F900F90DF91CF911F910F91FF90EF9069
:101B1000DF90CF90BF90AF909F908F907F906F900D
:101B20005F904F903F902F9008952F923F924F9249
:101B30005F926F927F928F929F92AF92BF92CF925D
:101B4000DF92EF92FF920F931F93CF93DF93CDB766
:101B5000DEB72A970FB6F894DEBF0FBECDBF1C01CB
:101B60006B015B834A835901D9016D907C90119779
:101B7000FB01F181F9831D921C92DB0112968C917D
:101B800081FD02C060E101C060E288EE0E94000BAE
:101B90008E2D90E0A0E0B0E08C839D83AE83BF8368
:101BA00068862A813B81D6014C9160E0C1010E9488
:101BB000800BF82EB6E08B1318C088EF0E94EF0A56
:101BC00082958170E1E08E27D60112969C91129742
:101BD00080FB91F912969C9391FD02C060E101C0D7
:101BE00060E288EE0E94000BDCCF811167C088ECB8
:101BF0000E94EF0A82FF60C080E30E94EF0A582E25
:101C000090E06816790608F45884F5018081918186
:101C10009301281B390B3A87298737FF02C01A86A0
:101C20001986852C912C89859A858816990614F435
:101C30009A86898649840E94ED0A98E09EBD0DB47B
:101C400007FEFDCFF801442041F01EBC4A940DB4BC
:101C500007FEFDCF8EB58193F6CFA985BA850A0F11
:101C60001B1F0E94660764E088EC0E94000BF501D0
:101C700080819181880E991E91828082F9815F1600
:101C800018F08614970470F088EF0E94EF0A82958E
:101C90008170D60112969C91129780FB91F9129651
:101CA0009C930CC0EE2009F47CCF6C817D818E81E9
:101CB0009F810E94A50875CF80EFF82E8F2D2A9660
:101CC0000FB6F894DEBF0FBECDBFDF91CF911F914D
:101CD0000F91FF90EF90DF90CF90BF90AF909F90CB
:101CE0008F907F906F905F904F903F902F900895CE
:101CF0002F923F924F925F926F927F928F929F921C
:101D0000AF92BF92CF92DF92EF92FF920F931F9309
:101D1000CF93DF93CDB7DEB761970FB6F894DEBFF0
:101D20000FBECDBF3C01F42E322E202EC98A4EA00C
:101D30005FA0C8A4D9A4188A1F861E861D868E019E
:101D4000035F1F4F9E01215F3F4F0E94130B8111C4
:101D500096C039822A82EB8289898C83BE82AD82C9
:101D600098868F82AE014F5F5F4F68E080E20E94ED
:101D70007F0C2D853E854F2D60E1C3010E94800BB5
:101D8000E82E811178C0932D9078392EC114D1049A
:101D900009F462C0EF85F8898281992309F44DC066
:101DA00082608283540122242394A114B10409F493
:101DB00058C05C864B864D855E856F857889E12CA1
:101DC00086019E01255F3F4FC3010E94950DE82EBD
:101DD000A6E08A130FC00F85188988EF0E94EF0ACA
:101DE00085FB882780F98225F801928180FB91F993
:101DF0009283DBCF81113FC08AA59BA50097A1F0FC
:101E0000DC01ED91FC9111970190F081E02DC4016E
:101E10008A199B099A8789876B857C859E01275F34
:101E20003F4FA601CD0109958B859C85A81AB90A5B
:101E30008415950508F0B9CF0FC0816082834D8568
:101E40005E8586019201BF01C3010E94A20C81112F
:101E500016C02D853E8511C02D853E85311005C0EB
:101E60000CC0E11008C02D853E8560EA4F2DC301EE
:101E70000E94800B04C08E2D02C060E8F7CF6196EF
:101E80000FB6F894DEBF0FBECDBFDF91CF911F918B
:101E90000F91FF90EF90DF90CF90BF90AF909F9009
:101EA0008F907F906F905F904F903F902F9008950C
:101EB0008F929F92AF92BF92CF92EF920F931F9308
:101EC0001F921F921F930F933F932F934901A12CB1
:101ED000B12CCC24C394E12C06E020E80E94780EBB
:101EE0000F900F900F900F900F900F901F910F91E8
:101EF000EF90CF90BF90AF909F908F9008958F926A
:101F00009F92AF92BF92CF92EF92FF920F931F9248
:101F10001F92FF92EF923F932F934901A12CB12C76
:101F200022E0C22EE02E06E020E80E94780E0F90FC
:101F30000F900F900F900F900F900F91FF90EF90D8
:101F4000CF90BF90AF909F908F9008954F925F92E7
:101F50006F927F928F929F92AF92BF92CF92DF92B9
:101F6000EF92FF920F931F93CF93DF93CDB7DEB71E
:101F7000C054D1090FB6F894DEBF0FBECDBF3C01EF
:101F8000D62E542E422EC02ECE0101965C017C012D
:101F9000022F29E030E0C3010E947F0F81111BC096
:101FA0008B809C801F93CF92BF92AF921F9280E450
:101FB0008F93A12CB12C82E0C82EE42C06E020E8FF
:101FC000452D6D2DC3010E94780E0F900F900F903C
:101FD0000F900F900F90C05CDF4F0FB6F894DEBFEC
:101FE0000FBECDBFDF91CF911F910F91FF90EF906A
:101FF000DF90CF90BF90AF909F908F907F906F9029
:102000005F904F9008958F929F92AF92BF92CF9220
:10201000EF920F93CF931F921F921F921F921F92C6
:102020001F92812C912CA12CB12CC12CE22E05E009
:1020300020E00E94780EC82F6CE271E080E090E012
:102040000E94A5080F900F900F900F900F900F9087
:102050008C2FCF910F91EF90CF90BF90AF909F902A
:102060008F9008950F931F93CF93DF938A3F3FEF95
:10207000930711F486ED2DC0DC011696ED91FC91CD
:102080001797EF2B09F1122F242FEC011A8740E04C
:102090000E946309082F8823C9F0682FCE010E948F
:1020A000BC09009739F3FC011483202F40E060E065
:1020B000CE010E940310182F882351F0602FCE010B
:1020C0000E941C0A812F05C087ED03C084ED01C06A
:1020D00080E0DF91CF911F910F9108952F923F9251
:1020E0004F925F926F927F928F929F92AF92BF9228
:1020F000CF92DF92EF92FF920F931F93CF93DF93D4
:10210000CDB7DEB766970FB6F894DEBF0FBECDBF72
:102110001B8A38E03C8B3CE33D8B8A3F3FEF9307C3
:1021200009F464C0522E342E462E7C01DC01169632
:10213000CD90DC901797CE01439617969C938E9383
:1021400016971A962C938E010F5F1F4F22E130E0F5
:1021500040E060E0C7010E94580FF701D782C682B5
:102160008111A6C089849A846B847C84FD81FE8B56
:102170002E80670136E5C30ED11C560110E0D50153
:102180008D919C910097F1F1DC01ED91FC9100841F
:10219000F185E02D0995811135C0F501808191818E
:1021A000DC01ED91FC910088F189E02D622D09950B
:1021B000882341F1F50180819181DC01ED91FC9151
:1021C0000484F585E02DA301B4010995811110C0A7
:1021D000F50180819181DC01ED91FC910684F78508
:1021E000E02D6E890995811103C00CC086ED60C099
:1021F000052D232D442D612FC7010E94E30B813D46
:1022000009F056C01F5FB2E0AB0EB11C103109F0EF
:10221000B6CF10E0F601808191810097E1F1DC01F9
:10222000ED91FC910084F185E02D0995811133C079
:10223000F60180819181DC01ED91FC910088F189AA
:10224000E02D622D09958823D9F0F60180819181D6
:10225000DC01ED91FC910484F585E02DA301B4012E
:102260000995811118C0F60180819181DC01ED9101
:10227000FC910684F785E02D6E89099581110BC0CC
:10228000052D232D442D612FC7010E94E30B982FAC
:10229000977F913D69F41F5FE2E0CE0ED11C1031B3
:1022A00009F0B8CF252D432D642DC7010E943210AF
:1022B00066960FB6F894DEBF0FBECDBFDF91CF910B
:1022C0001F910F91FF90EF90DF90CF90BF90AF9054
:1022D0009F908F907F906F905F904F903F902F9046
:1022E00008958F929F92AF92BF92CF92EF920F93E9
:1022F0001F921F921F921F921F921F92812C912C4E
:10230000A12CB12CC12CE22E09E020E00E94780E15
:102310000F900F900F900F900F900F900F91EF90E4
:10232000CF90BF90AF909F908F9008958F929F9283
:10233000AF92BF92CF92DF92EF920F931F93CF9302
:10234000DF9300D000D0CDB7DEB76C015901480152
:102350001C821B821A8219828E010F5F1F4F9E0101
:102360002D5F3F4F0E94130B811109C049815A8193
:102370006B817C8184019501C6010E94950D0F90AF
:102380000F900F900F90DF91CF911F910F91EF90D1
:10239000DF90CF90BF90AF909F908F900895AF92B5
:1023A000BF92CF92DF92EF92FF920F931F93CF9342
:1023B0008C011D990EC088EC0E94EF0A85FF05C0B4
:1023C000C8010E94810760E201C060E088EC0E94C1
:1023D000000B80919301813039F040F0823079F028
:1023E000833079F5C1E00CC083E106C08091E4023E
:1023F000807F803131F181E18093E40222C0C0E02E
:102400008091E402807F8031E9F40E94A308DC011E
:10241000CB0188539F4FAF4FBF4F8093E002909303
:10242000E102A093E202B093E30280E28093E4022F
:1024300080ED0E94EF0A682F6F7D80ED0E94000BF7
:1024400001C0C0E0780186E5E80EF11C6801A6E74E
:10245000CA0ED11C5701F501819191915F0100973E
:1024600039F0DC01ED91FC910680F781E02D0995B2
:10247000AC14BD0481F78091E402803409F447C0B4
:1024800050F4803221F18033A1F1813109F08EC006
:10249000F60110820AC0813509F464C0803809F45D
:1024A00076C0803509F082C045C0D7018D919D91DD
:1024B0007D01009739F0DC01ED91FC910480F581FC
:1024C000E02D0995EC14FD0481F782E16DC00E94B6
:1024D000A3080091E0021091E1022091E202309104
:1024E000E302DC01CB01801B910BA20BB30BB7FD08
:1024F0005DC080ED0E94EF0A682F606280ED0E944F
:10250000000B61E088EE0E94000B80E44DC088EE75
:102510000E94EF0A80FD4AC060E488EC0E94000B34
:1025200088ED0E94EF0A682F686088ED0E94000B1A
:1025300080E53AC088EC0E94EF0A86FF37C081E54B
:102540008093E4020E94A308DC01CB014496A11D04
:10255000B11D8093E0029093E102A093E202B09358
:10256000E30224C00E94A308C090E002D090E102E0
:10257000E090E202F090E302DC01CB018C199D09AE
:10258000AE09BF09B7FD12C080E88093E4022C2F8A
:1025900040E060E0C8010E946E10882321F0823D77
:1025A00029F080EA01C080E98093E402CF911F9175
:1025B0000F91FF90EF90DF90CF90BF90AF90089574
:1025C0008F929F92AF92BF92CF92EF920F93CF9341
:1025D000DF93CDB7DEB7C054D1090FB6F894DEBF94
:1025E0000FBECDBF5F934F939E012F5F3F4F3F9331
:1025F0002F931F9220E42F9320E8822E912C5B01D1
:1026000032E2C32EE12C06E021E840E0FC016681C5
:10261000848195810E94780E0F900F900F900F90FB
:102620000F900F90C05CDF4F0FB6F894DEBF0FBE67
:10263000CDBFDF91CF910F91EF90CF90BF90AF9032
:102640009F908F9008958F929F92AF92BF92CF925A
:10265000DF92EF92FF920F93A42EB12C1F921F9244
:10266000DF92CF92FF92EF924701C22EE02E09E057
:1026700021E2462FFC016681848195810E94780EBB
:102680000F900F900F900F900F900F900F91FF9061
:10269000EF90DF90CF90BF90AF909F908F90089574
:1026A0008F929F92AF92BF92CF92EF920F93A62EEE
:1026B000B12C1F921F921F921F921F921F92812C6A
:1026C000912CC22EE42E0AE021E240E0FC0166815A
:1026D000848195810E94780E0F900F900F900F903B
:1026E0000F900F900F91EF90CF90BF90AF909F9071
:1026F0008F9008958F929F92AF92BF92CF92EF9258
:102700000F93A62EB12C1F921F921F921F921F9201
:102710001F92812C912CC12CE42E0BE021E240E091
:10272000FC016681848195810E94780E0F900F9044
:102730000F900F900F900F900F91EF90CF90BF9050
:10274000AF909F908F900895FC018285089581E05D
:10275000693009F080E00895CF93DF93EC018A811E
:102760009B81DC01ED91FC910480F581E02D6A856F
:1027700009958A85813439F4EA81FB81EA58FF4F53
:102780008081846080831A861B861C861D861E8637
:102790001F86188A80E0DF91CF9108958F929F92D3
:1027A000AF92BF92CF92EF920F93A42EB12CB22A88
:1027B0001F921F921F921F921F921F92812C912C89
:1027C000C12CE62E01E023E240E0FC01628582811B
:1027D00093810E94780E0F900F900F900F900F90A2
:1027E0000F900F91EF90CF90BF90AF909F908F90F0
:1027F00008958F929F92AF92BF92CF92EF920F93D4
:10280000A62EB12C1F921F923F932F935F934F934D
:102810004A01C12CE12C00E023EA40E0FC01628582
:10282000828193810E94780E0F900F900F900F90ED
:102830000F900F900F91EF90CF90BF90AF909F901F
:102840008F9008958F929F92AF92BF92CF92EF9206
:102850000F93A42EB12CB22A1F921F921F921F9287
:102860001F921F92812C912CC12CE62E03E023E2B3
:1028700040E0FC016285828193810E94780E0F9076
:102880000F900F900F900F900F900F91EF90CF90AF
:10289000BF90AF909F908F9008952F923F924F924C
:1028A0005F926F927F928F929F92AF92BF92CF92E0
:1028B000DF92EF92FF920F931F93CF93DF93CDB7E9
:1028C000DEB7E8970FB6F894DEBF0FBECDBFDC01D0
:1028D0001A963C91311107C1122F242E362E3C013D
:1028E000FC01C280D380D601ED91FC910190F08172
:1028F000E02D60E0C60109957C01009709F4F5C060
:10290000FC01A080B180A114B10409F4F0C043011E
:10291000F4E08F0E911CDC0111969C928E9214961D
:102920001C93FE0131962F018F0128E030E040E03A
:1029300060E0D30112968D919C9113970E94580FDD
:10294000F70114828111D9C08D81893009F0D1C07D
:102950000981D601ED91FC910280F381E02D222DB9
:1029600041E0632DC6010995F3018287882309F4AC
:10297000C2C098859583282F40E060E082819381D2
:102980000E940310182F882389F0D701AD92BC92C2
:10299000D601ED91FC910480F581E02DD3011A96CA
:1029A0006C91C6010995F3011286ABC0202F01324C
:1029B00008F020E2D701AD92BC9221110BC0940126
:1029C00042E0F3016285828193810E948E0A811127
:1029D00097C010C030E0820140E0D3011A966C919C
:1029E0001A9712968D919C9113970E94580F8111FE
:1029F00087C0E5CF1F921F925F924F921F9288E08F
:102A00008F9388E0882E912CA12CB12C99E2C92EAD
:102A1000E12C06E020EA40E0F301628582819381A7
:102A20000E94780E182F0F900F900F900F900F901C
:102A30000F90811166C08B81D3011B968C931B97DD
:102A4000720100E028E030E040E01A966C911A979D
:102A500012968D919C9113970E947F0F811150C007
:102A60002B813C8140E0F3016285828193810E9449
:102A70007F0F811145C0298130E0CE0181967C0114
:102A800040E0D3011A966C911A9712968D919C9101
:102A900013970E947F0F811133C02E8140E0F30114
:102AA0006285828193810E947111811129C001E0A8
:102AB000D3011B968C91801740F020E0402F68E0F6
:102AC000C3010E9422140F5FF3CFD3011296ED9140
:102AD000FC911397EA58FF4F80818460808381E0E6
:102AE00050968C930EC019ED0CC016ED0AC017ED70
:102AF00008C011ED06C014ED04C0F701B182A08238
:102B0000182F812FE8960FB6F894DEBF0FBECDBF09
:102B1000DF91CF911F910F91FF90EF90DF90CF90B9
:102B2000BF90AF909F908F907F906F905F904F90ED
:102B30003F902F900895CF92DF92FF920F931F93B3
:102B4000CF93DF9300D000D0CDB7DEB78C01F62E47
:102B500019821A821B821C8220E0462F61E10E94AA
:102B6000CE1320E04F2D60E1C8010E94CE1320E07B
:102B70004F2D64E0C8010E94221483E0C82ED12C9E
:102B80009E012F5F3F4F44E050E06F2DC8010E942F
:102B9000F9138823F1F020E04F2D64E1C8010E9471
:102BA000CE1320E04F2D60E1C8010E94CE1364E1F6
:102BB00070E080E090E00E94A5080F900F900F90C9
:102BC0000F90DF91CF911F910F91FF90DF90CF90E9
:102BD000089589819A81AB81BC819D7F833091402A
:102BE000A041B105C1F264E670E080E090E00E948F
:102BF000A50881E0C81AD10819F6CDCFFC0189E6F5
:102C000091E0918380837383628312861386148696
:102C1000158616861786108A148288E085839CE3C1
:102C2000968391E09783808784E0818761157105A1
:102C3000B1F0DB01AA5ABF4F80E090E02D913D91A9
:102C4000232B49F48B96880F991FDB01A80FB91F1E
:102C5000ED93FC93089501968031910579F70895DD
:102C6000EF92FF920F931F93CF938C01C62F7A019F
:102C7000FA0180819181A281B3818130F3E09F07C5
:102C8000F1E0AF07B105D1F060F48115E1E09E07F6
:102C9000AE07B10571F181309140A140B10571F0ED
:102CA00064C0833021E0920720E1A207B105E1F181
:102CB00083309340A041B105B9F157C08091E5023E
:102CC000811153C020E04C2F61E1C8010E94CE1356
:102CD00020E04C2F60E1C8010E94CE1320E04C2F71
:102CE00064E0C8010E94221481E08093E50281EB38
:102CF0003DC020E0462F61E1C8010E94CE1320E0D4
:102D00004C2F60E1C8010E94CE131092E502F80139
:102D100062856770C770660F660F660F6C2B8281C5
:102D200093810E94AB0A21C020E04C2F64E1C801CE
:102D30000E94CE1320E04C2F60E1C8010E94CE1308
:102D400064E170E080E090E00E94A508F8016285EF
:102D5000F70121812695217067704C2FF80182813F
:102D600093810E946E101092E50280E0CF911F9136
:102D70000F91FF90EF900895CF92DF92EF920F9313
:102D80001F93CF93DF93CDB7DEB72E970FB6F8948E
:102D9000DEBF0FBECDBF6C0181E090E09E878D87C6
:102DA000E12C8E010F5F1F4F9E01235F3F4F41E0DB
:102DB000F6016285828193810E949611811151C032
:102DC00002E011E089818023D1F019861A861B86E2
:102DD0001C869E01275F3F4F44E050E0612FC601F3
:102DE0000E94F91381110BC0AE01475F5F4F612F45
:102DF000C6010E943016813B99F1811132C0000F4B
:102E00001F5F1830F9F611E0F6018385811740F154
:102E100019861A861B861C869E01275F3F4F44E059
:102E200050E0612FC6010E94F913811117C08985F6
:102E30009A85877091708130914081F48B859C8553
:102E400081609C878B87AE01475F5F4F612FC60112
:102E50000E943016813B21F0811103C01F5FD4CF47
:102E600080E02E960FB6F894DEBF0FBECDBFDF9187
:102E7000CF911F910F91EF90DF90CF9008950F9316
:102E80001F93CF93DF93FC012089211102C080E0C2
:102E900020C0EC010E94A3080C851D852E853F856E
:102EA000DC01CB01801B910BA20BB30BB7FDEFCF65
:102EB000CE010E94BC16182F0E94A308DC01CB0192
:102EC0008C599F4FAF4FBF4F8C879D87AE87BF8771
:102ED000812FDF91CF911F910F910895CF93DF93B1
:102EE000FC01EB0180819181892B21F18281882372
:102EF00019F1DA012D913C91232BE1F0A881B981E0
:102F00009C91A381B0E0A81BB10920813181A20F5F
:102F1000B31F9C93828181508283DA018D919C91B1
:102F2000119701978D939C9388819981019699833C
:102F30008883DCCF80E003C08381828381E0DF91DE
:102F4000CF910895CF92DF92EF92FF920F931F934C
:102F5000CF93DF936C01EB017B01E40EF51E00E0E3
:102F600010E0CE15DF0561F06991D601ED91FC917D
:102F70000190F081E02DC6010995080F191FF1CFCE
:102F8000C801DF91CF911F910F91FF90EF90DF90DB
:102F9000CF9008958091EF020895CF93DF9300D0F2
:102FA0001F92CDB7DEB79C0180917204843019F571
:102FB00093E099833B832A839093E9008FEF90916C
:102FC000E800815095FD06C09AE69A95F1F700C099
:102FD0008111F5CF8091E80085FF0DC040E050E001
:102FE00063E070E0CE0101960E94211A8091E80012
:102FF0008E778093E8000F900F900F90DF91CF9124
:103000000895CF93DF9300D01F92CDB7DEB7209104
:103010007204243031F522E02983805891099B8382
:103020008A8383E08093E9008FEF9091E8008150DC
:1030300095FD06C09AE69A95F1F700C08111F5CF8B
:103040008091E80085FF0DC040E050E063E070E053
:10305000CE0101960E94211A8091E8008E7780931C
:10306000E8000F900F900F90DF91CF91089520917D
:1030700072042430F1F422E02093E9002FEF309124
:10308000E800215035FD06C03AE63A95F1F700C058
:103090002111F5CF2091E80025FF0BC040E050E062
:1030A00065E070E00E94211A8091E8008E7780939D
:1030B000E8000895CF93DF9320917204243039F50E
:1030C00021E02093E90021E8215049F03091E80007
:1030D00035FD05C035ED3A95F1F70000F5CF2091AB
:1030E000E80025FF14C0EC0140E050E068E070E02B
:1030F0000E94211A8091E8008E778093E80088E092
:10310000FE01A7EEB2E001900D928A95E1F7DF9102
:10311000CF91089580917104811109C00E94B21B62
:103120000E940F1C8091E20084608093E200089569
:103130001092710408950895089542E061EC81E0D1
:103140000E942B1B42E061EC82E00E942B1B42E0BC
:1031500061EC83E00C942B1B80917404833009F4A0
:1031600053C030F4813071F0823009F48CC008957E
:103170008A3009F478C08B3009F45EC0893009F0D8
:103180009AC020C080917304813A09F094C0809164
:10319000E800877F8093E80080917704909178041D
:1031A000892B21F468E087EE92E003C060E080E0C4
:1031B00090E070E00E946C1A8091E8008B77809319
:1031C000E800089580917304813209F074C0809101
:1031D000770490917804892B09F06DC08091E80004
:1031E000877F8093E8008091E80082FD05C0809190
:1031F00072048111F8CF5FC08091F1008093EF02DB
:103200008091E8008B7753C080917304813A09F074
:1032100052C08091770490917804892B09F04BC0BB
:103220008091E800877F8093E8008091E80080FF2C
:10323000FCCF80910A0136C0809173048132D9F5A8
:103240008091770490917804892BA9F58091E8000A
:10325000877F8093E8000E94601B809175048093B3
:103260000A010C948C2380917304813221F58091A2
:10327000E800877F8093E8000E94601B80917604BD
:103280008093F002089580917304813AA1F48091B3
:10329000E800877F8093E8008091E80080FFFCCF02
:1032A0008091F0028093F1008091E8008E77809306
:1032B000E8000C94601B089580E008958091EF026F
:1032C0008093E6021092EF020E94961F0C948C23CA
:1032D0000C945E190E946F2A8091E6028093EF029F
:1032E00008950C946A1908950C9473190C94731929
:1032F00084B7877F84BF0FB6F894A895809160004B
:10330000886180936000109260000FBE90E080E8BA
:103310000FB6F89480936100909361000FBE80E037
:1033200091E00E94961E0E9476190E94E91E0E945A
:10333000B21B0E940F1C8091E20084608093E20027
:1033400078940E94EB1E80917204843019F00E94E0
:103350001B07F9CF0E94741980917204853019F40B
:103360000E941D07F9CF0E94EF1EF6CF292F3327A9
:1033700023303105C9F060F42130310581F022306D
:10338000310509F041C084E590E022E332E040C01D
:1033900021323105E1F02232310531F135C082E1CF
:1033A00090E026E832E034C099278130910549F059
:1033B00028F0029749F5E0EEF1E005C0EEE2F2E018
:1033C00002C0EEE1F2E0849190E09F0121C0633001
:1033D000D8F4E62FF0E0EE0FFF1FEC57FE4F2081F0
:1033E000318189E090E014C0633070F470E0FB013B
:1033F000EE0FFF1FE258FE4F20813181FB01E5589F
:10340000FE4F808190E004C080E090E020E030E05A
:10341000FA0131832083089519BC82E089BD09B483
:1034200000FEFDCF8091D8008F7D8093D8008091E1
:10343000E00082608093E0008091E00081FDFCCF9D
:103440000895CF92DF92EF92FF920F931F93CF9345
:10345000DF93EC018B017A010E947F1B811133C045
:10346000E114F10439F0F70180819181081B190BF7
:10347000C80FD91FC12CD12C0115110519F180914C
:10348000E80085FD16C08091E8008E778093E80003
:10349000E114F10449F0F70180819181C80ED91E31
:1034A000D182C08285E00FC00E947F1B882321F358
:1034B0000AC089918093F10001501109FFEFCF1AE2
:1034C000DF0ADACF80E0DF91CF911F910F91FF905B
:1034D000EF90DF90CF9008952091790430917A0495
:1034E0002617370748F06115710539F42091E80077
:1034F0002E772093E80001C0B901FC0120E061159E
:10350000710579F1809172048823F1F18530F1F130
:103510008091E80083FD3CC08091E80082FD2EC0D0
:103520008091E80080FFEBCF2091F3008091F200C2
:1035300090E0922B6115710551F08830910538F4B7
:1035400021912093F100615071090196F3CF21E0A0
:10355000089709F020E08091E8008E778093E800DA
:10356000CECF2111CFCF0AC080917204882361F0A1
:10357000853061F08091E80083FD0AC08091E80009
:1035800082FFF2CF80E0089582E0089583E00895FD
:1035900081E008952091790430917A042617370745
:1035A00048F06115710539F42091E8002E772093D9
:1035B000E80001C0B901FC0120E06115710591F13D
:1035C00080917204882309F440C0853009F43FC01B
:1035D0008091E80083FD3DC08091E80082FD2FC00E
:1035E0008091E80080FFE9CF2091F3008091F20004
:1035F00090E0922B6115710559F08830910540F4E7
:1036000024912093F1003196615071090196F2CF17
:1036100021E0089709F020E08091E8008E77809300
:10362000E800CBCF2111CCCF0AC08091720488234F
:1036300061F0853061F08091E80083FD0AC08091DF
:10364000E80082FFF2CF80E0089582E0089583E0F1
:10365000089581E00895982F973068F59093E900D8
:10366000981739F07091EC002091ED005091F00026
:1036700003C0242F762F50E021FD02C09F5FECCFC6
:103680003091EB003E7F3093EB003091ED003D7FB9
:103690003093ED003091EB0031603093EB0070938C
:1036A000EC002093ED005093F0002091EE0027FDF8
:1036B000E5CF80E008958F708093E90081E0089560
:1036C0008091730487FF11C08091E80082FD05C0DE
:1036D000809172048111F8CF11C08091E8008B773E
:1036E0000BC080917204882349F08091E80080FF2C
:1036F000F8CF8091E8008E778093E80008952091BC
:10370000E4003091E50095E64091EC00842F817053
:1037100040FF23C08091E80080FD1DC080917204AD
:10372000882399F0853099F08091EB0085FD11C0D8
:103730004091E4005091E5002417350729F391509A
:1037400011F09A01E1CF84E0089582E0089583E0CA
:10375000089581E0089580E008954091E80042FFD7
:10376000DDCF08950E94201C0E94281CE0EEF0E0AE
:10377000808181608083E8EDF0E080818F778083B5
:1037800019BCA7EDB0E08C918E7F8C9380818F7EE9
:1037900080831092710408950F931F93CF93DF934A
:1037A0000E94201C0E94281CC8EDD0E088818F77E1
:1037B000888388818068888388818F7D888319BC0D
:1037C0001092720410926E041092700410926F04A2
:1037D00000EE10E0F80180818B7F8083888181601A
:1037E000888342E060E080E00E942B1BE1EEF0E085
:1037F00080818E7F8083E2EEF0E080818160808333
:10380000808188608083F80180818E7F80838881B9
:1038100080618883DF91CF911F910F910895E8ED2A
:10382000F0E080818F7E8083E7EDF0E08081816031
:10383000808384E082BF81E0809371040C94CC1B70
:10384000E8EDF0E080818E7F80831092E2000895A1
:103850001092DA001092E10008951F920F920FB6B5
:103860000F9211242F933F934F935F936F937F9306
:103870008F939F93AF93BF93EF93FF938091E1005A
:1038800082FF0BC08091E20082FF07C08091E100BF
:103890008B7F8093E1000E949C188091DA0080FF6A
:1038A0001DC08091D80080FF19C08091DA008E7F02
:1038B0008093DA008091D90019BC80FF0BC082E0B0
:1038C00089BD09B400FEFDCF81E0809372040E949F
:1038D0008A1804C0109272040E9498188091E10026
:1038E00080FF19C08091E20080FF15C08091E20046
:1038F0008E7F8093E2008091E20080618093E200FD
:103900008091D80080628093D80019BC85E08093B4
:1039100072040E9468198091E10084FF2FC0809199
:10392000E20084FF2BC019BC82E089BD09B400FE0F
:10393000FDCF8091D8008F7D8093D8008091E100E9
:103940008F7E8093E1008091E2008F7E8093E20081
:103950008091E20081608093E20080916E04882370
:1039600011F084E007C08091E30087FD02C081E090
:1039700001C083E0809372040E9471198091E1007C
:1039800083FF29C08091E20083FF25C08091E10080
:10399000877F8093E10082E08093720410926E042E
:1039A0008091E1008E7F8093E1008091E2008E7F24
:1039B0008093E2008091E20080618093E20042E027
:1039C00060E080E00E942B1B8091F0008860809373
:1039D000F0000E949B18FF91EF91BF91AF919F91D2
:1039E0008F917F916F915F914F913F912F910F90A8
:1039F0000FBE0F901F9018951F920F920FB60F9247
:103A000011242F933F934F935F936F937F938F93E3
:103A10009F93AF93BF93CF93DF93EF93FF93C091A7
:103A2000E900CF708091EC00D82FD17080FDD0E8F4
:103A30001092E9008091F000877F8093F0007894E5
:103A40000E94401D1092E9008091F00088608093F0
:103A5000F000CD2BCF70C093E900FF91EF91DF9183
:103A6000CF91BF91AF919F918F917F916F915F9116
:103A70004F913F912F910F900FBE0F901F9018956F
:103A80001F93CF93DF93CDB7DEB7AA970FB6F89405
:103A9000DEBF0FBECDBFE3E7F4E08091F10081937C
:103AA00024E0EB37F207C9F70E94AC188091E800D8
:103AB00083FF24C18091730490917404492F50E0D6
:103AC0004A30510508F01AC1FA01EA5AFF4F0C9426
:103AD000762E803881F0823809F010C18091770409
:103AE0008F708093E9008091EB0085FB882780F937
:103AF0001092E90006C080916F04909170049111BA
:103B000082609091E800977F9093E8008093F100A5
:103B10001092F100C8C0282F2D7F09F0EFC0882334
:103B200019F0823061F0EAC080917504813009F0AB
:103B3000E5C0933009F080E0809370042BC0809141
:103B40007504811127C0809177048F7009F4D6C065
:103B50008093E9002091EB0020FF1CC0933021F4FA
:103B60008091EB00806214C09091EB009061909383
:103B7000EB0021E030E0A90102C0440F551F8A95F7
:103B8000E2F74093EA001092EA008091EB0088602F
:103B90008093EB001092E9008091E800877F86C057
:103BA0008111ACC0109175041F778091E30080787B
:103BB000812B8093E3008091E800877F8093E80069
:103BC0000E94601B8091E80080FFFCCF8091E300A1
:103BD00080688093E300111102C082E001C083E09D
:103BE000809372048BC08058823008F087C0809127
:103BF0007504909176048C3D53E0950779F583E048
:103C00008A838AE289834FB7F894DE01139620E015
:103C10003EE051E2E32FF0E050935700E49120FFA3
:103C200003C0E295EF703F5FEF708E2F90E0EA30B7
:103C300010F0C79601C0C0968D939D932F5F2431DD
:103C400049F74FBF8091E800877F8093E8006AE2E0
:103C500070E0CE0101960E946C1A14C0AE014F5F55
:103C60005F4F609177040E94B619BC01892B09F45B
:103C700045C09091E800977F9093E80089819A81F0
:103C80000E94CA1A8091E8008B778093E80036C0C2
:103C90008038A1F58091E800877F8093E8008091CB
:103CA0006E048093F1008091E8008E778093E800A5
:103CB0000E94601B23C0811121C0809175049091E6
:103CC000760499270297D4F48091E800877F809347
:103CD000E8008091750480936E040E94601B8091BF
:103CE0006E04811106C08091E30087FD02C081E06F
:103CF00001C084E0809372040E949D188091E800C6
:103D000083FF0AC08091E800877F8093E80080915C
:103D1000EB0080628093EB00AA960FB6F894DEBFAA
:103D20000FBECDBFDF91CF911F9108959093F60202
:103D30008093F5020895E091F502F091F602309734
:103D400021F00190F081E02D099480E00895E09148
:103D5000F502F091F602309721F00280F381E02D18
:103D600009940895E091F502F091F602309721F060
:103D70000480F581E02D099408952091F30230919B
:103D8000F4022817390771F09093F4028093F3023C
:103D9000E091F502F091F602309721F00680F7816C
:103DA000E02D099408952091F1023091F202281734
:103DB000390771F09093F2028093F102E091F502DD
:103DC000F091F602309721F00084F185E02D0994FE
:103DD00008950C94971F0E94F3080C940C088F927E
:103DE0009F92AF92BF92CF92DF92EF92FF920F938A
:103DF0001F93CF93DF9300D000D01F92CDB7DEB7D3
:103E00000E94DB0508EF12E0F12C8F2D0E94910635
:103E10004C01F801A080B180A826B926A114B104F4
:103E200039F4F3940E5F1F4FF0E1FF12EECF39C06B
:103E30008091630481FD0E94BE06E12CCC24C394D2
:103E4000D12CC5018C219D21892B21F1E982FA8297
:103E500021E0C4018C219D21892B09F420E02B83D2
:103E60000E94FC088160782F9D838C8349815A8150
:103E70006B818D810E949A1F49815A816B817C815F
:103E80008D810E941C2AF801808191818C259D25BD
:103E900091838083E394CC0CDD1CF0E1EF12D1CF51
:103EA000C0CF8FEF89838A831B820E94FC088160C8
:103EB000782F9D838C8349815A816B818D810E94EB
:103EC0009A1F0E941B2A0E94522C0E949B1E9091B6
:103ED000F7028917B9F00E949B1E8093F7020F909A
:103EE0000F900F900F900F90DF91CF911F910F9136
:103EF000FF90EF90DF90CF90BF90AF909F908F900A
:103F00000C942D2A0F900F900F900F900F90DF912F
:103F1000CF911F910F91FF90EF90DF90CF90BF90C6
:103F2000AF909F908F9008950C94BF0608950895C8
:103F300008950895CF93DF93CDB7DEB72B970FB6D3
:103F4000F894DEBF0FBECDBF942F4F83252F588727
:103F500069877A878B874A855B85452B31F02F3FB0
:103F600031F481E09F3F19F403C081E001C080E09B
:103F700080FD07C04F81588569857A858B850E94B1
:103F80001C2ADE01119686E0FD0111928A95E9F75F
:103F900085E0FE01379601900D928A95E1F74981FF
:103FA0005A816B817C818D819E810E949F262B96F8
:103FB0000FB6F894DEBF0FBECDBFDF91CF9108954D
:103FC000882309F45CC09CEF980F913A20F090E5AB
:103FD000980F9E3218F40E947D290DC090E2980F30
:103FE000983058F4877091E001C0990F8A95EAF7EC
:103FF000892F0E94BB290C94F5299BE5980F9330DB
:1040000070F4853A29F0863A31F083E890E005C0F3
:1040100081E890E002C082E890E00C94BD1E98E533
:10402000980F953160F5883A89F0893A91F08A3A8B
:1040300099F08B3AA1F08C3AA9F08D3AB1F08E3A12
:10404000B9F08F3AC1F080E090E017C082EE90E0C6
:1040500014C089EE90E011C08AEE90E00EC085EBAE
:1040600090E00BC086EB90E008C083EB90E005C0C9
:1040700084EB90E002C087EB90E00C94D31E08958F
:10408000882349F19CEF980F913A20F090E5980F22
:104090009E3218F40E949A290DC090E2980F983031
:1040A00058F4877091E001C0990F8A95EAF7892F3B
:1040B0000E94C1290C94F5299BE5980F933020F4B8
:1040C00080E090E00C94BD1E885A853120F480E099
:1040D00090E00C94D31E0895882321F00E94BB2900
:1040E0000C94F5290895882321F00E94C1290C948D
:1040F000F5290895CF92DF92EF92FF920F931F93CD
:10410000CF93DF9300D000D01F92CDB7DEB76C0104
:104110000E942F2A8111E0C285E0F601DE0111968E
:1041200001900D928A95E1F7F6014081518123813A
:1041300034812115310531F05F3F31F481E04F3F8B
:1041400019F403C081E001C080E080FDC5C2F60122
:10415000F280E580E2948FE0E822722F3D832C8389
:104160006F2D8D810E94F9288C010E94F8280E94F1
:10417000F227E12FE295EF708E2F90E0FC01E05ADC
:10418000FF4F0C94762E812F807F1F70882311F0B3
:104190001295107FFF2049F0112309F452C2812F9C
:1041A0000E94CE290E94F5294CC2802F0E944020F7
:1041B000112309F491C2812F0E94D4290F900F90EE
:1041C0000F900F900F90DF91CF911F910F91FF9063
:1041D000EF90DF90CF900C94F529812F807F1F7096
:1041E000803211F01295107F002319F0013009F18F
:1041F0002BC0FF20A9F0EE2059F1F1E0812FEF1242
:1042000028C00F900F900F900F900F90DF91CF91DB
:104210001F910F91FF90EF90DF90CF900C94DE29CB
:10422000EE2021F081E0E81609F456C20E94E1294F
:104230002DC0FF20E9F0E5E0EE1508F44DC20E9424
:10424000B829812329F022C0FF20F1F0E11015C028
:10425000812F0F900F900F900F900F90DF91CF91C3
:104260001F910F91FF90EF90DF90CF900C946C20F6
:10427000F4E0FE1508F430C209C0F601858180FF24
:10428000E0C18F708583E4CFE110EEC1812F61C161
:10429000812F86958695837019F08130B9F01CC204
:1042A000FF2019F0C801937002C080E090E00F90E9
:1042B0000F900F900F900F90DF91CF911F910F9162
:1042C000FF90EF90DF90CF900C94BD1EFF2019F06F
:1042D000C801937002C080E090E00F900F900F90A3
:1042E0000F900F90DF91CF911F910F91FF90EF9062
:1042F000DF90CF900C94D31E802FFF2019F00E94E6
:104300005A2B02C00E94C22B0F900F900F900F905B
:104310000F90DF91CF911F910F91FF90EF90DF9061
:10432000CF900C94472C812F837009F070C0F1104E
:10433000D3C1202F229526952770220F220F602FA0
:104340006F70862F90E0A0E0B0E06C017D01022E3E
:1043500004C0CC0CDD1CEE1CFF1C0A94D2F704FF39
:1043600012C08FE090E0A0E0B0E004C0880F991F79
:10437000AA1FBB1F2A95D2F7BC01CD01609570958D
:104380008095909503C060E070E0CB01169516957E
:1043900013701230B1F040F56C297D298E299F29C8
:1043A000113031F10F900F900F900F900F90DF911F
:1043B000CF911F910F91FF90EF90DF90CF900C94D1
:1043C0000D286C297D298E299F290F900F900F9021
:1043D0000F900F90DF91CF911F910F91FF90EF9071
:1043E000DF90CF900C9427280E940D28C701B601BA
:1043F0000F900F900F900F900F90DF91CF911F9122
:104400000F91FF90EF90DF90CF900C94F327FF2057
:1044100019F0812F817001C08695882309F45CC151
:10442000202F229526952770220F220F602F6F7064
:10443000862F90E0A0E0B0E06C017D01022E04C068
:10444000CC0CDD1CEE1CFF1C0A94D2F704FF12C03A
:104450008FE090E0A0E0B0E004C0880F991FAA1F91
:10446000BB1F2A95D2F7BC01CD0160957095809550
:10447000909503C060E070E0CB011695169513701F
:104480001230B1F040F56C297D298E299F29113019
:1044900031F10F900F900F900F900F90DF91CF910F
:1044A0001F910F91FF90EF90DF90CF900C94D42844
:1044B0006C297D298E299F290F900F900F900F90C6
:1044C0000F90DF91CF911F910F91FF90EF90DF90B0
:1044D000CF900C94E6280E94D428C701B6010F9013
:1044E0000F900F900F900F90DF91CF911F910F9130
:1044F000FF90EF90DF90CF900C94C228003FC1F165
:1045000028F480E4800F803250F096C0023F09F416
:104510005EC008F449C0033F09F46CC08DC0F02FA1
:10452000F071EF2E812F8F71FF2051F00E945B28D8
:10453000802FEE2019F08295807F8BCE8F7089CEF0
:104540000E947C28802FEE2019F08295807F01C088
:104550008F700F900F900F900F900F90DF91CF9171
:104560001F910F91FF90EF90DF90CF900C947320EC
:10457000FF20A9F084E08E1508F4AEC0812F8F7162
:104580000F900F900F900F900F90DF91CF911F9190
:104590000F91FF90EF90DF90CF900C94A128E5E071
:1045A000EE1508F499C0EACFFF2099F0812F8F71A2
:1045B0000F900F900F900F900F90DF91CF911F9160
:1045C0000F91FF90EF90DF90CF900C945B28FF202D
:1045D00069F3812F8F710F900F900F900F900F90B4
:1045E000DF91CF911F910F91FF90EF90DF90CF90CF
:1045F0000C947C28FF2089F0812F8F710F900F90F1
:104600000F900F900F90DF91CF911F910F91FF901E
:10461000EF90DF90CF900C9446280F900F900F9062
:104620000F900F90DF91CF911F910F91FF90EF901E
:10463000DF90CF900C944128FF2099F0EE2009F4F0
:10464000B5CF802F0F900F900F900F900F90DF91AC
:10465000CF911F910F91FF90EF90DF90CF900C942E
:10466000E01FEE2009F4B5CF802F0F900F900F9030
:104670000F900F90DF91CF911F910F91FF90EF90CE
:10468000DF90CF900C944020412F4F70602FC601D7
:104690000E94D42A0F900F900F900F900F90DF91EF
:1046A000CF911F910F91FF90EF90DF90CF900C94DE
:1046B0004D27412F4F70602FC6010F900F900F9024
:1046C0000F900F90DF91CF911F910F91FF90EF907E
:1046D000DF90CF900C94D72A0F900F900F900F90EF
:1046E0000F90DF91CF911F910F91FF90EF90DF908E
:1046F000CF9008950E94DB290E94AA290E94F529E3
:104700000E94F72C0E94472C80E090E00E94BD1E82
:1047100080E090E00C94D31E0E94CB290C947A2365
:104720001F93CF93DF9300D000D01F92CDB7DEB799
:10473000942F4983252F5A836B837C838D834C81EF
:104740005D81452B31F02F3F31F481E09F3F19F41B
:1047500003C081E001C080E0182F117080FD31C0DE
:1047600049815A816B817C818D810E94F928292F92
:1047700022952F702C3030F42A30A0F422502230B1
:1047800030F022C02C30C9F02F30B9F01DC0853A6E
:1047900028F48430C0F4823028F415C090E2980FD9
:1047A000983088F0883E30F4803E68F48450813A36
:1047B00058F409C0803F41F406C093FB112710F95B
:1047C00003C010E001C011E0812F0F900F900F90F7
:1047D0000F900F90DF91CF911F910895CF93DF93AA
:1047E00000D000D01F92CDB7DEB70F900F900F9082
:1047F0000F900F90DF91CF910895CF93DF9300D06A
:1048000000D000D0CDB7DEB726960FB6F894DEBF45
:104810000FBECDBFDF91CF9108951F93CF93DF934C
:10482000C091180316E080911903C81799F0D0E0E1
:104830001C9FF0011D9FF00D1124E65EFC4F40818E
:10484000518162817381848195810E94FD2321962B
:10485000C770E9CFDF91CF911F91089540914A032E
:1048600050914B0360914C0370914D0380914E0326
:1048700090914F030C94FD23CF9380914F03829529
:104880008F7009F05FC080914C03882309F45AC0EF
:1048900080911803B091190370914A03A0914B03C2
:1048A00040914D0350914E0391E07F3F09F090E01D
:1048B000692FC6E08B1709F445C04115510521F059
:1048C000AF3F21F020E003C021E001C0262F90E09F
:1048D00020FD35C0C89FF001C99FF00D1124E65E90
:1048E000FC4F21812A132BC02081271328C022814D
:1048F000211125C0238134812417350710F421505C
:104900003109241B350B2E303140C8F420914F0360
:104910002F70206120934F0326E0289FF001299FEC
:10492000F00D1124E15EFC4F80818F7080618083E7
:104930008AE493E00E947A20CF910C940D24019692
:104940008770B8CFCF910895AF92BF92CF92DF9288
:10495000EF92FF920F931F93CF93DF93CDB7DEB704
:1049600061970FB6F894DEBF0FBECDBF7C0185E026
:10497000F701DE011D9601900D928A95E1F7D701AE
:104980004C9111965C9111971296DC9012971396A8
:104990000D911C91149730914A0360914B038091C3
:1049A0004D0390914E03009731F06F3F31F421E0B9
:1049B0003F3F19F403C021E001C020E0B22FB170E5
:1049C000BB2E20FD76C1A0904C03AA2009F4D1C0D3
:1049D00020914F030817190750F0F801E81BF90B55
:1049E000CF01CC24C3948E309140D0F009C0809583
:1049F0009095800F911FCC24C3948E30914080F00D
:104A0000C12C207F09F0A1C0702F198B088B6D2D50
:104A100089890E94EE238AE493E00E947A20BDC037
:104A2000822F807F09F056C0561315C0431313C060
:104A3000CD2CD11010C02F70206120934F030E9405
:104A40002E248AE493E00E947A2080914F03D701BC
:104A500015968C9362C10115110531F05F3F31F459
:104A600081E04F3F19F403C081E001C080E080FD88
:104A700003C081E08D2502C080E090E0B82FB170C6
:104A8000CB2E80FF1CC0809118032091190336E0C3
:104A9000821709F41FC190E0389FF001399FF00D93
:104AA0001124E65EFC4F6181561306C060814613F7
:104AB00003C06281D61203C001968770E9CFCD2C66
:104AC000DD2009F42AC180914F03816080934F0358
:104AD000C12C23C1561308C0431306C0D11004C013
:104AE00080914F03D701B9C04D875E87DF86702F55
:104AF000198B088B6D2D89890E949023882399F149
:104B0000DD2089F120914F03822F82958F7090E0F4
:104B1000029774F080914A0390914B0398878F839A
:104B200019861B870A872C87CE0107960E947A2058
:104B300086E0F701AAE4B3E001900D928A95E1F7CF
:104B40000E943C240E942E2411C0561781F14D87EB
:104B50005E87DF86702F198B088B6D2D89890E94E7
:104B60009023811138C0C7010E947A20CC24C394BD
:104B7000D4C00817190708F446C0F801E81BF90B60
:104B8000CF018E30914008F446C0C12C702F198B94
:104B9000088B6D2D89890E94EE23EAE4F3E086E01C
:104BA000DF011D928A95E9F70E942E24B6C04313B7
:104BB000CECFD110CCCF80914F03F7018583C701B1
:104BC0000E947A2086E0EAE4F3E0DF011D928A95F4
:104BD000E9F7CA2CA2C0DD2031F220914F03822FC9
:104BE00082958F7090E002970CF4A2CF80914A03D7
:104BF00090914B039A8389831B821D830C832E83A0
:104C0000CE01019693CF80959095800F911F8E30A5
:104C1000914008F0BACFCD2CDD2009F4A4CF561373
:104C200033C0431331C020914F0320FD24C0822F95
:104C300082958F70482F50E041155105E1F0D70162
:104C400015962C9315974F30510549F08F5F982F8B
:104C50009295907F822F8F70892B15968C93C70128
:104C60000E947A2086E0F701AAE4B3E001900D9259
:104C70008A95E1F799CF86E0F701AAE4B3E00190C5
:104C80000D928A95E1F749C04D875E87DF86702FC8
:104C9000198B088B6D2D89890E949023811148CF33
:104CA00080914F03816080934F03C7010E947A2057
:104CB00034C0DD2009F457CF4D875E87DF86702F23
:104CC000198B088B6D2D89890E949023882309F404
:104CD0004ACF2ECF702F198B088B6D2D89890E949A
:104CE000F928292F22952F70223028F49F7039F04F
:104CF000811105C00BC0243028F49F7049F4805EF8
:104D0000883020F0C7010E947A20BC2CCB2C05C033
:104D1000F7019581907F99F7F9CF8C2D61960FB6A9
:104D2000F894DEBF0FBECDBFDF91CF911F910F91E1
:104D3000FF90EF90DF90CF90BF90AF9008951F93BA
:104D4000CF93DF93CDB7DEB72C970FB6F894DEBFC5
:104D50000FBECDBF4F83588769877A878B879C8723
:104D6000CE0107960E94A4248823D1F09F818885D4
:104D70002A853B85232B31F08F3F31F481E09F3F23
:104D800019F403C081E001C080E080FD47C04F817D
:104D9000588569857A858B859C850E94FD233EC058
:104DA00086E0FE013796DE01119601900D928A95FC
:104DB000E1F7FF81E8856A857B856115710531F032
:104DC000EF3F31F481E0FF3F19F403C081E001C0FF
:104DD00080E080FD23C02091190330E0C9010196D5
:104DE000877099274091180350E084179507F1F1D7
:104DF000F983EA837D836C8396E0929FD001939F31
:104E0000B00D1124A65EBC4FFE01319601900D92AB
:104E10009A95E1F7809319030E940D2416E0809182
:104E2000180390911903891771F1189FC00111247B
:104E3000865E9C4F0E94A424882329F1E0911803E8
:104E40001E9FF0011124E65EFC4F4081518162817A
:104E50007381848195810E94FD238091180390E0E5
:104E600001968770992780931803D9CF0E948C23CD
:104E70001092190310921803EAE4F3E086E0DF01D0
:104E80001D928A95E9F72C960FB6F894DEBF0FBEF7
:104E9000CDBFDF91CF911F910895DF92EF92FF92E6
:104EA0000F931F93CF93DF93FC01892B09F488C0E4
:104EB000E12CF12CDD24D394EF01219684918537E8
:104EC00009F460C058F4843708F04EC0843008F00C
:104ED00068C08130D1F0823071F172C0883709F436
:104EE0005BC050F4863709F453C0873709F068C0B7
:104EF0008E2D0E94C82952C09CE7980F903708F069
:104F00005FC08F770E9440204EC08F010E5F1F4F01
:104F1000FE01849190E2980F983050F48770FD2D37
:104F200001C0FF0F8A95EAF78F2F0E94CE2915C086
:104F30000E94E01F14C08F010E5F1F4FFE0184917D
:104F400090E2980F983068F48770FD2D01C0FF0F34
:104F50008A95EAF78F2F0E94D4290E94F529E8014B
:104F600022C00E944020FBCFCF010296FE01C491D7
:104F7000CC2361F0EFECF7E03197F1F700C00000CF
:104F8000C150F6CFCF010296FE01F490EC010BC0A8
:104F90000E94B829E82E07C00E94CB290E94F5295B
:104FA00002C00E94E01F8F2D882341F0EFECF7E054
:104FB0003197F1F700C000008150F6CFFE017CCFA1
:104FC000DF91CF911F910F91FF90EF90DF900895A7
:104FD000609350047093510480935204909353044F
:104FE0000C942C2A08950F931F9300915404109150
:104FF00055042091560430915704602B712B822B5D
:10500000932B6093540470935504809356049093AB
:1050100057041F910F910C942B2A0F931F9300910B
:105020005404109155042091560430915704602384
:1050300071238223932360935404709355048093C7
:105040005604909357041F910F910C942B2A0F93A1
:105050001F930091540410915504209156043091EF
:105060005704602771278227932760935404709315
:10507000550480935604909357041F910F910C94FC
:105080002B2A60E070E0CB010C94E8270F931F936C
:1050900041E050E060E070E08A019B0104C0000F35
:1050A000111F221F331F8A95D2F7C901B8011F9122
:1050B0000F910C94E8270F931F9341E050E060E0BC
:1050C00070E004C0440F551F661F771F8A95D2F702
:1050D0008091500490915104A0915204B0915304D6
:1050E0008A019B01082B192B2A2B3B2BC901B801E4
:1050F0001F910F910C94E8270F931F9341E050E00C
:1051000060E070E004C0440F551F661F771F8A954A
:10511000D2F740955095609570958091500490918C
:105120005104A0915204B09153048A019B010823B9
:1051300019232A233B23C901B8011F910F910C9415
:10514000E8270F931F9341E050E060E070E004C057
:10515000440F551F661F771F8A95D2F78091500420
:1051600090915104A0915204B09153048A019B0183
:10517000082719272A273B27C901B8011F910F913A
:105180000C94E8270F931F93009150041091510441
:105190002091520430915304602B712B822B932B5E
:1051A0001F910F910C94E8270F931F9300915004C7
:1051B00010915104209152043091530460237123C3
:1051C000822393231F910F910C94E8270F931F9331
:1051D00000915004109151042091520430915304D5
:1051E00060277127822793271F910F910C94E8273E
:1051F00008958F929F92AF92BF92DF92EF92FF92AB
:105200000F931F93CF93DF9300D000D01F92CDB7A1
:10521000DEB76B837C838D838A018C819D81892B92
:1052200031F01F3F31F481E04F3F19F403C081E0BA
:1052300001C080E080FF03C080E090E04DC08B8122
:105240008823D1F18090500490905104A090520492
:10525000B09053048091540490915504A091560449
:10526000B0915704882A992AAA2ABB2A8FE1E82EEE
:10527000F12CD501C4010E2C04C0B695A7959795C5
:1052800087950A94D2F780FD06C081E0E81AF108FC
:1052900080F7D12C07C0DE2CB8018E2D0E94AB2ADE
:1052A000019799F380E1189FF0011124E05BFC4F16
:1052B000E00FF11DD08209C080E1189FF001112498
:1052C000E05BFC4FE00FF11DD08009831A836981F8
:1052D0007A818D2D0E94AB2A0F900F900F900F9026
:1052E0000F90DF91CF911F910F91FF90EF90DF9082
:1052F000BF90AF909F908F90089520910B013091B7
:105300000C01F90132969FEF40E05191851789F029
:105310009F3F19F4511101C0942F4F5F4630A9F7F8
:105320009F3F39F0F901E90FF11D97FDFA9582834E
:1053300008950895E0910B01F0910C019F012A5FFF
:105340003F4F9281891301C012823196E217F30711
:10535000C1F7089581E090E0E0910B01F0910C011C
:10536000E80FF91F1082019688309105A9F708957A
:1053700080916204089590916204892B8093620465
:105380000895809590916204892380936204089522
:1053900080936204089510926204089590916104CC
:1053A000892B8093610408958095909161048923ED
:1053B00080936104089510926104089580935804C5
:1053C000089510925804089580910B0190910C015A
:1053D000FC0131969C01285F3F4F80E09191911133
:1053E0008F5FE217F307D1F70895E0910B01F09179
:1053F0000C01809162048083E0910B01F0910C011B
:10540000908180916104892B808380915804882346
:1054100061F0E0910B01F0910C019081892B808368
:105420000E94E42981111092580480910B019091FF
:105430000C010C94A71E0895CF93DF9300D000D0E9
:105440001F92CDB7DEB70F900F900F900F900F9077
:10545000DF91CF910895089508950C94941F80E0F2
:10546000089580917204843021F11092640420E444
:1054700088E190E00FB6F894A895809360000FBE85
:105480002093600083B7817F846083BF83B781608E
:1054900083BF7894889583B78E7F83BF0FB6F894C7
:1054A000A8958091600088618093600010926000F0
:1054B0000FBE0895CF930E94981F0E94DB050E94A3
:1054C000991FC0E08C2F0E949106892B29F4CF5F91
:1054D000C031C1F780E001C081E0CF9108950E9402
:1054E000961F0C948C231F920F920FB60F921124CB
:1054F0008F939F93AF93BF9380916404811113C0E6
:105500008091DC029091DD02A091DE02B091DF0279
:105510004196A11DB11D8093DC029093DD02A09302
:10552000DE02B093DF02BF91AF919F918F910F90F8
:105530000FBE0F901F901895E82FF0E080E1989F24
:10554000E00DF11D1124E052FF4F9491892F8F70CF
:1055500092959F700895CF93C82FCB010E949C2AEB
:10556000E92F90E040E1E49F90011124282B392B92
:105570002038310519F480E090E014C0E770F0E0C5
:1055800028E0C29FE00DF11D112424E0EE0FFF1F63
:105590002A95E1F7E80FF91FEE0FFF1FE050F849D9
:1055A00085919491CF91089580E090E008950895B9
:1055B0008091670480FF0BC06091100185E0689FB7
:1055C000B001112475956795759567952BC081FF7E
:1055D00009C06091100185E0689FB00111247595A4
:1055E000679520C082FF07C06091100185E0689F29
:1055F000B001112417C0909168049923D1F06091F3
:105600000F01961788F72091100185E0289F9001DF
:105610001124929FA001939F500D112470E0CA01A4
:105620000E94622E6038710540F46115710519F40D
:1056300006C065E070E0862F08958FE7089581E049
:1056400008958091670480FF08C060910E0170E0AA
:10565000759567957595679521C081FF06C0609126
:105660000E0170E07595679519C082FF04C06091C6
:105670000E0170E010C090916804992399F0609138
:105680000D019617A0F780910E01899FC00111248A
:1056900070E00E94622E6038710540F4611571055A
:1056A00019F406C061E070E0862F08958FE7089531
:1056B00081E00895803F21F40E94D82A819504C09A
:1056C000813F29F40E94D82A80936B040895823F79
:1056D00021F40E94D82A819504C0833F29F40E94B6
:1056E000D82A80936A040895893F19F40E94212BD7
:1056F00005C08A3F31F40E94212B819580936C0470
:1057000008958B3F21F40E94212B819504C08C3F8A
:1057100029F40E94212B80936D040895843F21F485
:1057200080916904816017C0853F21F480916904EC
:10573000826011C0863F21F48091690484600BC0AF
:10574000873F21F480916904886005C0883F31F467
:105750008091690480618093690408958D3F21F4EC
:105760008091670481600BC08E3F21F480916704B3
:10577000826005C08F3F29F4809167048460809324
:1057800067040895803F39F480916B0487FF6CC0F3
:1057900010926B0469C0813F29F480916B04181644
:1057A000BCF362C090916A04823F29F497FF5CC009
:1057B00010926A0459C0833F19F41916CCF354C0EF
:1057C000893F41F480916C0418160CF04DC0109282
:1057D0006C044AC08A3F29F480916C0487FF44C05E
:1057E000F6CF8B3F39F480916D0487FF3DC0109256
:1057F0006D043AC08C3F29F480916D041816BCF3F7
:1058000033C0843F21F4809169048E7F17C0853FA7
:1058100021F4809169048D7F11C0863F21F480912D
:1058200069048B7F0BC0873F21F480916904877FD7
:1058300005C0883F31F4809169048F7E80936904AC
:1058400013C08D3F21F4809167048E7F0BC08E3F83
:1058500021F4809167048D7F05C08F3F29F48091EA
:1058600067048B7F8093670480916A0481110EC066
:1058700080916B0481110AC080916C04811106C073
:1058800080916D04811102C010926804089589E628
:1058900094E00E94B21E0E94FC08909366048093DC
:1058A000650408951F93CF93DF93809165049091D1
:1058B00066040E941409AC0190916804992321F0B8
:1058C0002091110130E006C0209112018AE0289F4A
:1058D000900111244217530708F485C080916A048F
:1058E000C0916B04D0916C0410916D04811107C0BC
:1058F000C11175C0D11173C0111171C074C09F3F27
:1059000019F09F5F90936804181624F40E94D82A17
:1059100080936A0480916A0487FF05C00E94D82A98
:10592000819580936A041C1624F40E94D82A8093DF
:105930006B0480916B0487FF05C00E94D82A819573
:1059400080936B0460916A04662331F1C0916B040B
:10595000CC2311F1062E000C770B880B990B0E94BB
:10596000402D23E333E343E35FE30E94F52D0E94E0
:10597000082D60936A046C2FCC0F770B880B990B62
:105980000E94402D23E333E343E35FE30E94F52DC0
:105990000E94082D60936B041D1624F40E94212B95
:1059A00080936C0480916C0487FF05C00E94212BBA
:1059B000819580936C04111624F40E94212B80930E
:1059C0006D0480916D0487FF05C00E94212B819595
:1059D00080936D04DF91CF911F910C94472C9F3FD2
:1059E00009F08FCFA0CFDF91CF911F910895E9E605
:1059F000F4E085E0DF011D928A95E9F710926804D2
:105A00001092670408950E947B2D08F481E00895A8
:105A10000E940F2D6894B1110C94EA2D08950E94F4
:105A2000CF2D88F09F5798F0B92F9927B751B0F034
:105A3000E1F0660F771F881F991F1AF0BA95C9F712
:105A400014C0B13091F00E94E92DB1E008950C949A
:105A5000E92D672F782F8827B85F39F0B93FCCF34D
:105A6000869577956795B395D9F73EF4909580958F
:105A7000709561957F4F8F4F9F4F0895E89409C0AF
:105A800097FB3EF490958095709561957F4F8F4F71
:105A90009F4F9923A9F0F92F96E9BB279395F69587
:105AA000879577956795B795F111F8CFFAF4BB0F05
:105AB00011F460FF1BC06F5F7F4F8F4F9F4F16C069
:105AC000882311F096E911C0772321F09EE8872FF3
:105AD000762F05C0662371F096E8862F70E060E0AF
